:020000040800F2
:1000000000000220A5260008D9230008E1230008EB
:10001000E9230008F1230008F9230008000000008C
:1000200000000000000000000000000001240008A3
:100030000F240008000000001D2400082B240008E5
:10004000F5260008F5260008F5260008F526000824
:10005000F5260008F5260008F5260008F526000814
:10006000F5260008F5260008F5260008F526000804
:10007000F5260008F5260008F5260008F5260008F4
:10008000F5260008F52600083924000800000000C5
:10009000000000000000000000000000F52600083D
:1000A0004D24000869240008F5260008F5260008FC
:1000B0007D240008F5260008F5260008F52600082E
:1000C000F5260008F5260008F5260008F5260008A4
:1000D000F526000891240008F5260008000000001D
:1000E000F5260008F5260008F526000800000000A7
:1000F000000000000000000000000000F5260008DD
:1001000000000000F5260008F5260008F526000886
:1001100000000000000000000000000000000000DF
:10012000A5240008B9240008CD240008F5260008FD
:10013000F52600080000000000000000000000009C
:10014000000000000000000000000000F52600088C
:10015000F5260008F5260008F5260008E124000829
:10016000F5260008F5260008000000000000000049
:10017000000000000000000000000000000000007F
:1001800000000000F526000800000000000000004C
:08019000F5260008F526000821
:1001A00010B5054C237833B9044B13B10448AFF3B1
:1001B00000800123237010BD08070020000000000C
:1001C0009018010808B5034B1BB103490348AFF36E
:1001D000008008BD000000000C07002090180108F6
:1001E00001F0FF01102A2BDB10F0070F08D010F8E8
:1001F000013B013A8B422DD010F0070F42B3F6D1EC
:10020000F0B441EA012141EA014122F007047FF004
:1002100000070023F0E80256083C85EA010586EA5B
:10022000010685FA47F5A3FA87F586FA47F6A5FA97
:1002300087F68EB9EED1F0BC01F0FF0102F00702A3
:1002400032B110F8013B013A83EA010313B1F8D14E
:100250000020704701387047002D06BF354603382F
:10026000073815F0010F07D1013015F4807F02BF68
:10027000013015F4C03F0130F0BC0138704700BFB9
:10028000034613F8012B002AFBD1181A01387047D6
:1002900081F0004102E000BF83F0004330B54FEA37
:1002A00041044FEA430594EA050F08BF90EA020FA4
:1002B0001FBF54EA000C55EA020C7FEA645C7FEA37
:1002C000655C00F0E2804FEA5454D4EB5555B8BF5A
:1002D0006D420CDD2C4480EA020281EA030382EACB
:1002E000000083EA010180EA020281EA0303362D5D
:1002F00088BF30BD11F0004F4FEA01314FF4801C30
:100300004CEA113102D0404261EB410113F0004F41
:100310004FEA03334CEA133302D0524263EB4303F8
:1003200094EA050F00F0A780A4F10104D5F1200E96
:100330000DDB02FA0EFC22FA05F2801841F10001F1
:1003400003FA0EF2801843FA05F359410EE0A5F1C5
:1003500020050EF1200E012A03FA0EFC28BF4CF0F6
:10036000020C43FA05F3C01851EBE37101F00045AC
:1003700007D54FF0000EDCF1000C7EEB00006EEBB9
:100380000101B1F5801F1BD3B1F5001F0CD3490843
:100390005FEA30004FEA3C0C04F101044FEA44529A
:1003A00012F5800F80F09A80BCF1004F08BF5FEA21
:1003B000500C50F1000041EB045141EA050130BD01
:1003C0005FEA4C0C404141EB0101013C28BFB1F513
:1003D000801FE9D291F0000F04BF01460020B1FA5E
:1003E00081F308BF2033A3F10B03B3F120020CDA31
:1003F0000C3208DD02F1140CC2F10C0201FA0CF00F
:1004000021FA02F10CE002F11402D8BFC2F1200C73
:1004100001FA02F120FA0CFCDCBF41EA0C01904029
:10042000E41AA2BF01EB0451294330BD6FEA040472
:100430001F3C1CDA0C340EDC04F11404C4F120025D
:1004400020FA04F001FA02F340EA030021FA04F36F
:1004500045EA030130BDC4F10C04C4F1200220FAC6
:1004600002F001FA04F340EA0300294630BD21FA04
:1004700004F0294630BD94F0000F83F4801306BFCA
:1004800081F480110134013D4EE77FEA645C18BFBE
:100490007FEA655C29D094EA050F08BF90EA020F55
:1004A00005D054EA000C04BF1946104630BD91EA4D
:1004B000030F1EBF0021002030BD5FEA545C05D150
:1004C0004000494128BF41F0004130BD14F580048F
:1004D0003CBF01F5801130BD01F0004545F0FE4103
:1004E00041F470014FF0000030BD7FEA645C1ABF38
:1004F000194610467FEA655C1CBF0B46024650EA6F
:10050000013406BF52EA033591EA030F41F400219A
:1005100030BD00BF90F0000F04BF0021704730B520
:100520004FF4806404F132044FF000054FF00001F5
:1005300050E700BF90F0000F04BF0021704730B5B6
:100540004FF4806404F1320410F0004548BF40428B
:100550004FF000013EE700BF42004FEAE2014FEAE0
:1005600031014FEA02701FBF12F07F4393F07F4FBB
:1005700081F06051704732F07F4208BF704793F0BE
:100580007F4F04BF41F40021704730B54FF46074D1
:1005900001F0004521F000411CE700BF50EA0102D4
:1005A00008BF704730B54FF000050AE050EA01027D
:1005B00008BF704730B511F0004502D5404261EBED
:1005C00041014FF4806404F132045FEA915C3FF42E
:1005D000D8AE4FF003025FEADC0C18BF03325FEACB
:1005E000DC0C18BF033202EBDC02C2F1200300FA7C
:1005F00003FC20FA02F001FA03FE40EA0E0021FAA1
:1006000002F11444BDE600BF70B54FF0FF0C4CF48E
:10061000E06C1CEA11541DBF1CEA135594EA0C0F40
:1006200095EA0C0F00F0DEF82C4481EA030621EA7B
:100630004C5123EA4C5350EA013518BF52EA0335B6
:1006400041F4801143F4801338D0A0FB02CE4FF068
:100650000005E1FB02E506F00042E0FB03E54FF098
:100660000006E1FB03569CF0000F18BF4EF0010E90
:10067000A4F1FF04B6F5007F64F5407404D25FEA8C
:100680004E0E6D4146EB060642EAC62141EA55513F
:100690004FEAC52040EA5E504FEACE2EB4F1FD0C81
:1006A00088BFBCF5E06F1ED8BEF1004F08BF5FEAFF
:1006B000500E50F1000041EB045170BD06F00046B1
:1006C00046EA010140EA020081EA0301B4EB5C045E
:1006D000C2BFD4EB0C0541EA045170BD41F4801156
:1006E0004FF0000E013C00F3AB8014F1360FDEBF7B
:1006F000002001F0004170BDC4F10004203C35DA57
:100700000C341BDC04F11404C4F1200500FA05F3D9
:1007100020FA04F001FA05F240EA020001F000427A
:1007200021F0004110EBD37021FA04F642EB0601F0
:100730005EEA430E08BF20EAD37070BDC4F10C041A
:10074000C4F1200500FA04F320FA05F001FA04F2DE
:1007500040EA020001F0004110EBD37041F10001CA
:100760005EEA430E08BF20EAD37070BDC4F12005D5
:1007700000FA05F24EEA020E20FA04F301FA05F23D
:1007800043EA020321FA04F001F0004121FA04F2E5
:1007900020EA020000EBD3705EEA430E08BF20EAB5
:1007A000D37070BD94F0000F0FD101F000464000EF
:1007B00041EB010111F4801F08BF013CF7D041EA71
:1007C000060195F0000F18BF704703F00046520075
:1007D00043EB030313F4801F08BF013DF7D043EA46
:1007E0000603704794EA0C0F0CEA135518BF95EAFC
:1007F0000C0F0CD050EA410618BF52EA4306D1D183
:1008000081EA030101F000414FF0000070BD50EAA1
:10081000410606BF1046194652EA430619D094EA2B
:100820000C0F02D150EA013613D195EA0C0F05D115
:1008300052EA03361CBF104619460AD181EA030169
:1008400001F0004141F0FE4141F470014FF0000021
:1008500070BD41F0FE4141F4780170BD70B54FF0BC
:10086000FF0C4CF4E06C1CEA11541DBF1CEA13553C
:1008700094EA0C0F95EA0C0F00F0A7F8A4EB05041E
:1008800081EA030E52EA03354FEA013100F0888015
:100890004FEA03334FF0805545EA131343EA1263DE
:1008A0004FEA022245EA111545EA10654FEA002693
:1008B0000EF000419D4208BF964244F1FD0404F54C
:1008C000407402D25B084FEA3202B61A65EB0305A8
:1008D0005B084FEA32024FF480104FF4002CB6EB65
:1008E000020E75EB030E22BFB61A754640EA0C00E5
:1008F0005B084FEA3202B6EB020E75EB030E22BF25
:10090000B61A754640EA5C005B084FEA3202B6EB65
:10091000020E75EB030E22BFB61A754640EA9C0024
:100920005B084FEA3202B6EB020E75EB030E22BFF4
:10093000B61A754640EADC0055EA060E18D04FEAB2
:10094000051545EA16754FEA06164FEAC30343EA52
:1009500052734FEAC2025FEA1C1CC0D111F4801F1F
:100960000BD141EA00014FF000004FF0004CB6E718
:1009700011F4801F04BF01430020B4F1FD0C88BFB7
:10098000BCF5E06F3FF6AFAEB5EB030C04BFB6EBC2
:10099000020C5FEA500C50F1000041EB045170BDB5
:1009A0000EF0004E4EEA113114EB5C04C2BFD4EBE2
:1009B0000C0541EA045170BD41F480114FF0000E66
:1009C000013C90E645EA060E8DE60CEA135594EAE2
:1009D0000C0F08BF95EA0C0F3FF43BAF94EA0C0FE5
:1009E0000AD150EA01347FF434AF95EA0C0F7FF45A
:1009F00025AF104619462CE795EA0C0F06D152EAAE
:100A000003353FF4FDAE1046194622E750EA410691
:100A100018BF52EA43067FF4C5AE50EA41047FF4A2
:100A20000DAF52EA43057FF4EBAE12E74FF0FF3C07
:100A300006E000BF4FF0010C02E000BF4FF0010CD8
:100A40004DF804CD4FEA410C7FEA6C5C4FEA430C51
:100A500018BF7FEA6C5C1BD001B050EA410C0CBFA0
:100A600052EA430C91EA030F02BF90EA020F002002
:100A7000704710F1000F91EA030F58BF994208BF69
:100A800090422CBFD8176FEAE37040F00100704726
:100A90004FEA410C7FEA6C5C02D150EA013C07D17D
:100AA0004FEA430C7FEA6C5CD6D152EA033CD3D0C8
:100AB0005DF8040B704700BF8446104662468C46C2
:100AC0001946634600E000BF01B5FFF7B7FF0028F5
:100AD00048BF10F1000F01BD4DF808EDFFF7F4FF1E
:100AE0000CBF012000205DF808FB00BF4DF808EDA9
:100AF000FFF7EAFF34BF012000205DF808FB00BFCC
:100B00004DF808EDFFF7E0FF94BF012000205DF8ED
:100B100008FB00BF4DF808EDFFF7CEFF94BF0120A2
:100B200000205DF808FB00BF4DF808EDFFF7C4FF9B
:100B300034BF012000205DF808FB00BF4FEA410CE4
:100B40007FEA6C5C02D150EA013C0AD14FEA430CC7
:100B50007FEA6C5C02D152EA033C02D14FF0000004
:100B600070474FF0010070474FEA410212F5001242
:100B700015D211D56FF47873B3EB625212D94FEAE4
:100B8000C12343F0004343EA505311F0004F23FACE
:100B900002F018BF404270474FF00000704750EA23
:100BA000013005D111F0004008BF6FF000407047E0
:100BB0004FF00000704700BF4A0011D212F500123A
:100BC00011D20DD56FF47873B3EB62520ED44FEAA5
:100BD000C12343F0004343EA505323FA02F0704725
:100BE0004FF00000704750EA013002D14FF0FF3063
:100BF00070474FF0000070474FEA4102B2F1E04306
:100C000024BFB3F5001CDCF1FE5C0DD901F0004CF3
:100C10004FEAC0024CEA5070B2F1004F40EB830043
:100C200008BF20F00100704711F0804F21D113F16F
:100C30003872BCBF01F00040704741F480114FEAA8
:100C40005252C2F11802C2F1200C10FA0CF320FA31
:100C500002F018BF40F001004FEAC1234FEAD3234E
:100C600003FA0CFC40EA0C0023FA02F34FEA4303B8
:100C7000CCE77FEA625307D150EA01331EBF4FF041
:100C8000FE4040F44000704701F0004040F0FE405C
:100C900040F40000704700BF7BB972B90029BEBFA5
:100CA00000204FF0004106E008BF00281CBF6FF095
:100CB00000414FF0FF3000F009BAADF1080C6DE9CA
:100CC00004CE002909DB002B1ADB00F083F8DDF8E5
:100CD00004E0DDE9022304B07047404261EB4101CA
:100CE000002B1BDB00F076F8DDF804E0DDE90223E1
:100CF00004B0404261EB4101524263EB4303704751
:100D0000524263EB430300F065F8DDF804E0DDE9EF
:100D1000022304B0404261EB41017047524263EB51
:100D2000430300F057F8DDF804E0DDE9022304B0E6
:100D3000524263EB4303704753B94AB9002908BFD5
:100D400000281CBF4FF0FF314FF0FF3000F0BEB95C
:100D5000ADF1080C6DE904CE00F03CF8DDF804E0DC
:100D6000DDE9022304B0704738B5002200230446B1
:100D70000D46FFF7BBFE28B920462946BDE838409E
:100D800000F00AB8204605F1004100F005F84042A5
:100D900061EB410138BD00BFD0B50C4B00220646C7
:100DA0000F46FFF731FCFFF707FF0446FFF7B2FBE2
:100DB000074B0022FFF728FC02460B463046394617
:100DC000FFF76AFAFFF7F8FE2146D0BD0000F03DBC
:100DD0000000F0412DE9F047089D8E460446884604
:100DE000002B4AD18A42174662D9B2FA82F64EB136
:100DF000C6F1200301FA06F820FA03F3B74043EAEC
:100E00000808B4404FEA174E1FFA87FCB8FBFEF102
:100E1000230C0EFB118843EA084301FB0CF29A42B3
:100E200009D9FB1801F1FF3080F0EA809A4240F2C4
:100E3000E78002393B449A1AA3B2B2FBFEF00EFBE4
:100E4000102243EA024300FB0CFC9C4509D9FB1825
:100E500000F1FF3280F0D6809C4540F2D3803B44C5
:100E6000023840EA0140A3EB0C0300211DB1F3401E
:100E70000022C5E90032BDE8F0878B4205D90DB1EB
:100E8000C5E9000100210846F5E7B3FA83F100291E
:100E900046D1734502D3824200F20581841A6EEB7B
:100EA000030201209046002DE5D0C5E90048E2E7A5
:100EB000002A00F09080B2FA82F6002E40F0A48062
:100EC0008A1A030C4FEA174E80B2BCB20121B2FB62
:100ED000FEFC0EFB1C2243EA024304FB0CF29A4286
:100EE00007D9FB180CF1FF3802D29A4200F2E080D9
:100EF000C4469B1AB3FBFEF20EFB123340EA0343D7
:100F000002FB04F49C4207D9FB1802F1FF3002D225
:100F10009C4200F2CA8002461B1B42EA0C40A5E735
:100F2000C1F120068B4022FA06F71F430EFA01F4A6
:100F300020FA06F32EFA06FE4FEA1749234300FA79
:100F400001F81FFA87FCBEFBF9F01C0C09FB10EE40
:100F500044EA0E4400FB0CFEA64502FA01F209D950
:100F60003C1900F1FF3A80F09C80A64540F2998040
:100F700002383C44A4EB0E041FFA83FEB4FBF9F3E1
:100F800009FB13444EEA044403FB0CFCA44508D9B6
:100F90003C1903F1FF3E80F08280A4457FD9023BDB
:100FA0003C4443EA0040A4EB0C04A0FB02EC644583
:100FB0007346E14662D35FD05DB1B8EB030264EBE8
:100FC000090404FA06F622FA01F31E43CC40C5E9EF
:100FD000006400214FE7B1FBF2FC010C41EA0E4135
:100FE00080B240EA01423B4638463C46B846BE46DF
:100FF0002026B1FBF7F1A2EB080241EA0C4166E7BB
:10100000014618E710462CE7C6F120022EFA02F33B
:10101000B740B14020FA02F24FEA174E0A43B3FB41
:10102000FEF8BCB20EFB1833110C41EA034108FB79
:1010300004F9B04089454FEA104380B23ED979188F
:1010400008F1FF3C01D289451FD8A1EB0901B1FB92
:10105000FEF909FB04F80EFB191192B242EA0142B3
:10106000424529D2BA1809F1FF31C4D24245C2D251
:10107000A9F102013A44BEE7F0459DD2BEEB02035E
:101080006CEB070C0138E14696E7A7EB09094944E8
:10109000A8F1020CB1FBFEF909FB04F8DBE773468B
:1010A0007FE7504666E70846FDE63B44023A33E7F1
:1010B000ACF1020C3B441CE749469CE7A1EB09015B
:1010C000C446B1FBFEF909FB04F8C4E7704700BF52
:1010D00080B582B000AF78607B681B680A4A934293
:1010E0000DD101F09DFC01F029FD01F08DFD01F015
:1010F000C1FD01F04FFE01F08FFE01F0E9FE00BFDF
:101100000837BD4680BD00BF004001400000000020
:10111000B0B586B002AF03F05DFC00F0D9FA00F084
:10112000EBFD00F0B9FD00F03BFB00F061FD00F0CD
:1011300089FD00F089FB00F0B5FB00F0E1FB00F059
:101140007DFC00F01BFD2F492F4803F02CFC2F489D
:1011500001F000FF4FF4FA6003F0AEFC29492A4881
:1011600003F021FC01F018FC0346012B08D02849AC
:1011700028480AF0A3FE2749234803F014FC07E09F
:10118000254924480AF09AFE22491F4803F00BFC27
:10119000224803F0D1FA224803F0CEFA214B1B6813
:1011A000214A136001F0A8FA204801F066FF204BA5
:1011B00076229A841E4B1F4A9A620BE01E491F48F2
:1011C0000AF07CFE1D49104803F0EDFB4FF4FA6075
:1011D00003F072FC1549164802F0CBF8034683F081
:1011E0000103DBB2002BE9D1114B93F83230602BB5
:1011F0000CBF01230023FB73FB7B002B22D0104B81
:1012000021E000BFA81801084C09002004000020BC
:10121000B4180108E00B0020CC180108540F00207E
:101220006C0F00208C0F0020980C0020C80A0020B2
:101230009C0A0020CC070020D8180108D00A002002
:10124000F8180108B64B1A46B649B7480AF036FEF8
:10125000B549B64803F0A7FBB54B1B681846FFF726
:101260007BF904460D46B34B1B681846FFF774F92B
:1012700002460B46CDE9002322462B46AE49AF4835
:101280000AF01CFEAD49A94803F08DFB4FF44870ED
:1012900003F012FCAA4B1B7F012B40F0B98002F037
:1012A00023FDA84BD3E90001A74BD3E90023CDE9E7
:1012B000002302460B46A549A0480AF0FFFD9F49BE
:1012C0009A4803F070FBA24B1B781A46A14B1B787F
:1012D0001946A14B1B7800930B46A04997480AF08A
:1012E000EDFD9649914803F05EFB9D4B93F900306C
:1012F0001A469C4B1B7819469B4B1B7800930B4658
:101300009A498E480AF0DAFD8C49884803F04BFB75
:10131000974B1B681846FFF71FF902460B46954985
:1013200086480AF0CBFD8549804803F03CFB924B90
:101330001B681846FFF710F902460B468F497F4895
:101340000AF0BCFD7D49794803F02DFB8C4B1B68EE
:101350001846FFF701F902460B468A4977480AF01A
:10136000ADFD7649714803F01EFB02F055FF7C4B42
:1013700093F900301A467B4B1B7819467A4B1B7841
:1013800000930B4679496D480AF098FD6B49674810
:1013900003F009FB6B4BD3E900016B4BD3E900234E
:1013A000CDE9002302460B46684964480AF086FDF1
:1013B00062495E4803F0F7FA734B93F900301A461E
:1013C000724B93F9003072495C480AF077FD5B4933
:1013D000564803F0E8FA6F4B1B681846FFF7BCF855
:1013E00004460D466C4B1B681846FFF7B5F80246DD
:1013F0000B46CDE9002322462B4668494F480AF0A8
:101400005DFD4E49494803F0CEFA4D4801F0D4FD48
:101410004FF4167003F050FB6149444803F0C3FADF
:10142000604801F012FE03461A465F4B1A805E4B7D
:101430001B8807EE903AF8EE677AC7ED027A5A4BAE
:101440001B8807EE903AF8EE677AB0EE670A0FF065
:101450004DFBF0EE407A9FED557A67EE877A9FED6F
:10146000547A77EE877AF0EE670AB2EE040A0FF04C
:101470006BFB87ED010A7868FFF76EF802460B46B2
:101480004C492E480AF01AFD2C49284803F08BFAE3
:101490004FF4FA7003F010FB424801F0D6FD03460A
:1014A0001846FFF747F81AA3D3E90023FFF7ACF873
:1014B00002460B461046194617A3D3E90023FFF74F
:1014C000CDF902460B4610461946FFF795FB034639
:1014D000394A13609FED397A374BD3ED007A77EEB6
:1014E000677AB2EE047A67EE876A334B93ED007A3F
:1014F000C6EE877A324BC3ED007A314B93ED007A1A
:10150000DFED306AC7EE267A2F4BC3ED007A5DE03F
:101510006666666666660A400000000000FEAF4030
:101520000019010808190108D00A00204C09002000
:10153000840F0020880F00201C190108E00B0020F8
:1015400004000020200F0020280F00203819010877
:10155000340F0020330F0020320F002050190108F3
:10156000350F0020300F0020310F002064190108D2
:101570003C0F002080190108400F00208C19010841
:10158000440F00209C190108480F0020490F00203B
:10159000AC1901084C0F0020500F0020C0190108A1
:1015A000DC19010824070020DC0B0020C3F538C03B
:1015B0001F850340E4190108440C002033335340D5
:1015C000480C00208F4299424C0C0020324BD3ED46
:1015D000007ADFED320AB0EE670A0FF0B5FAF0EEEE
:1015E000407A9FED2F7A67EE877A2E4BC3ED007A13
:1015F0002D492E4803F0D7F94FF400612C4804F030
:1016000041FE0346FB70FB78012B04D12649274895
:1016100003F0C9F914E02449244803F0C4F922492D
:10162000224803F0C0F90BE0224923480AF046FCA7
:1016300021491E4803F0B7F94FF4FA6003F03CFA71
:101640001E4B1F4A1F49204802F000FB034683F04F
:101650000103DBB2002BE7D1194B1B681846FEF7DC
:101660007BFF04460D46174B1B681846FEF774FFB8
:1016700002460B46CDE9002322462B4613490E486D
:101680000AF01CFC0C49094803F08DF94FF4FA707C
:1016900003F012FAE0E500BF4C0C0020DE3731C049
:1016A0004234E942500C0020E00B00204C0900209D
:1016B00000000240F0190108D00A0020D80B0020D9
:1016C000D00B0020D40B00209C0A0020181A01081F
:1016D00080B594B000AF07F12003302200211846F6
:1016E0000AF051FC07F10C0300221A605A609A605C
:1016F000DA601A610023BB60274B1B6C264A43F05B
:1017000080531364244B1B6C03F08053BB60BB6895
:1017100000237B60214B1B68204A43F44043136045
:101720001E4B1B6803F440437B607B6801233B62D4
:101730004FF4A0237B620223BB634FF48003FB635F
:1017400004233B6464237B640223BB640423FB64A3
:1017500007F12003184606F06BFA0346002B01D070
:1017600000F044FB0F23FB6002233B6100237B61FD
:101770004FF48053BB610023FB6107F10C0303218D
:10178000184606F0CDFC0346002B01D000F02EFBDE
:1017900000BF5037BD4680BD003802400070004099
:1017A00080B584B000AF3B4600221A605A609A6050
:1017B000DA60214B214A1A601F4B4FF480325A6085
:1017C0001D4B00229A601C4B00221A611A4B00220A
:1017D0001A76194B002283F82020174B0022DA6278
:1017E000154B174A9A62144B0022DA60124B012201
:1017F000DA61114B002283F830200F4B01225A612D
:101800000D4803F07DF90346002B01D000F0EEFAFD
:101810000C4B3B6001237B600023BB603B461946B9
:10182000054803F05FFC0346002B01D000F0DEFA10
:1018300000BF1037BD4680BD2407002000200140B6
:101840000100000F1200001080B500AF124B134AC8
:101850001A60114B124A5A600F4B00229A600E4BCD
:101860000022DA600C4B4FF480421A610A4B0022CE
:101870005A61094B00229A61074B0022DA61064B3C
:1018800000221A62044804F02FFD0346002B01D009
:1018900000F0ACFA00BF80BDCC070020005400402F
:1018A000801A060080B500AF124B134A1A60114B24
:1018B000124A5A600F4B00229A600E4B0022DA60E7
:1018C0000C4B4FF480421A610A4B00225A61094BBB
:1018D00000229A61074B0022DA61064B00221A624D
:1018E000044804F001FD0346002B01D000F07EFA0D
:1018F00000BF80BD2008002000580040801A06006C
:1019000080B596B000AF07F1480300221A605A6014
:101910009A60DA6007F1400300221A605A6007F10A
:10192000240300221A605A609A60DA601A615A61D0
:101930009A613B1D2022002118460AF024FB3D4BF2
:101940003D4A1A603B4B63225A603A4B00229A6030
:10195000384B44F62062DA60364B00221A61354B70
:1019600000225A61334B00229A61324806F0F8FD9A
:101970000346002B01D000F039FA4FF48053BB64CA
:1019800007F1480319462B4807F05CF90346002B82
:1019900001D000F02BFA274806F0EDFE0346002B9D
:1019A00001D000F023FA00233B6400237B6407F19D
:1019B000400319461F4807F0E1FC0346002B01D005
:1019C00000F014FA60237B620023BB620023FB62F9
:1019D00000237B630023BB630023FB6307F1240325
:1019E0000C221946134807F06BF80346002B01D070
:1019F00000F0FCF900237B600023BB600023FB6048
:101A000000233B6100237B614FF40053BB61002343
:101A10003B623B1D1946074807F01EFD0346002B9D
:101A200001D000F0E3F9034800F086FB00BF58370F
:101A3000BD4680BD740800200000014080B58EB016
:101A400000AF07F1280300221A605A609A60DA603A
:101A500007F1200300221A605A603B1D00221A6021
:101A60005A609A60DA601A615A619A61424B4FF08B
:101A700080421A60404B63225A603F4B00229A60BA
:101A80003D4B44F62062DA603B4B00221A613A4B30
:101A900000229A61384806F063FD0346002B01D00E
:101AA00000F0A4F94FF48053BB6207F128031946F4
:101AB000314807F0C7F80346002B01D000F096F933
:101AC0002D4806F058FE0346002B01D000F08EF999
:101AD000294806F0F7FD0346002B01D000F086F9F7
:101AE00000233B6200237B6207F120031946224852
:101AF00007F044FC0346002B01D000F077F9602387
:101B00007B600023BB600023FB6000237B613B1DE7
:101B100000221946184806F0D3FF0346002B01D0D7
:101B200000F064F93B1D04221946134806F0C8FF73
:101B30000346002B01D000F059F93B1D082219463D
:101B40000D4806F0BDFF0346002B01D000F04EF912
:101B500000237B603B1D0C221946074806F054FF0A
:101B60000346002B01D000F041F9034800F0E4FAED
:101B700000BF3837BD4680BDBC08002080B584B0AA
:101B800000AF3B4600221A605A609A60DA60164B3A
:101B9000164A1A60144B63225A60134B00229A6053
:101BA000114B44F62062DA600F4B00221A610E4B93
:101BB00000229A610C4806F0D3FC0346002B01D0AA
:101BC00000F014F94FF480533B603B461946064839
:101BD00007F038F80346002B01D000F007F900BFEA
:101BE0001037BD4680BD00BF040900200040014001
:101BF00080B500AF114B124A1A60104B4FF41652C9
:101C00005A600E4B00229A600C4B0022DA600B4B9C
:101C100000221A61094B0C225A61084B00229A617A
:101C2000064B0022DA61054807F07CFC0346002BD6
:101C300001D000F0DBF800BF80BD00BF4C090020E0
:101C40000010014080B500AF114B124A1A60104BD2
:101C50004FF416525A600E4B00229A600C4B002231
:101C6000DA600B4B00221A61094B0C225A61084BB7
:101C700000229A61064B0022DA61054807F052FC07
:101C80000346002B01D000F0B1F800BF80BD00BFBB
:101C9000940900200014014080B582B000AF0023F9
:101CA0007B60144B1B6B134A43F480031363114B8B
:101CB0001B6B03F480037B607B68002200213820CB
:101CC00003F023FD382003F03CFD002200213920E1
:101CD00003F01BFD392003F034FD002200213A20DF
:101CE00003F013FD3A2003F02CFD00BF0837BD467A
:101CF00080BD00BF0038024080B58AB000AF07F158
:101D0000140300221A605A609A60DA601A61002394
:101D10003B61334B1B6B324A43F004031363304B7C
:101D20001B6B03F004033B613B690023FB602C4BFE
:101D30001B6B2B4A43F080031363294B1B6B03F08F
:101D40008003FB60FB680023BB60254B1B6B244AB0
:101D500043F001031363224B1B6B03F00103BB60D1
:101D6000BB6800237B601E4B1B6B1D4A43F00203C4
:101D700013631B4B1B6B03F002037B607B68002229
:101D80002021184804F096FA4FF400537B614FF479
:101D90000413BB610023FB6107F1140319461248C9
:101DA00004F0ECF804237B610023BB610223FB6198
:101DB00007F1140319460C4804F0E0F820237B6176
:101DC0000123BB610023FB6100233B6207F1140385
:101DD0001946044804F0D2F800BF2837BD4680BD3C
:101DE00000380240000002400008024080B400AF0A
:101DF00072B600BF00BFFDE780B582B000AF002320
:101E00007B60104B5B6C0F4A43F4804353640D4B73
:101E10005B6C03F480437B607B6800233B60094B71
:101E20001B6C084A43F080531364064B1B6C03F091
:101E300080533B603B68072003F05CFC00BF083721
:101E4000BD4680BD0038024080B58AB000AF7860E2
:101E500007F1140300221A605A609A60DA601A616E
:101E60007B681B68334A93425FD100233B61324B4E
:101E70005B6C314A43F4807353642F4B5B6C03F407
:101E800080733B613B690023FB602B4B1B6B2A4A31
:101E900043F001031363284B1B6B03F00103FB604A
:101EA000FB6810237B610323BB610023FB6107F107
:101EB00014031946214804F061F8214B214A1A60A5
:101EC0001F4B00225A601E4B00229A601C4B0022BE
:101ED000DA601B4B4FF480621A61194B4FF40062B9
:101EE0005A61174B4FF400529A61154B4FF48072B0
:101EF000DA61134B00221A62114B00225A62104819
:101F000003F03AFC0346002B01D0FFF76FFF7B681C
:101F10000B4A9A630A4A7B689363002200211220CD
:101F200003F0F3FB122003F00CFC00BF2837BD4682
:101F300080BD00BF00200140003802400000024088
:101F40006C0700201064024080B58CB000AF786050
:101F500007F11C0300221A605A609A60DA601A6165
:101F60007B681B683B4A93422CD10023BB613A4BF0
:101F70001B6B394A43F002031363374B1B6B03F0AF
:101F80000203BB61BB69C023FB6112233B620023D8
:101F90007B620323BB620423FB6207F11C03194627
:101FA0002E4803F0EBFF00237B612B4B1B6C2A4A6E
:101FB00043F400131364284B1B6C03F400137B6180
:101FC0007B6942E07B681B68254A93423DD1002330
:101FD0003B61214B1B6B204A43F0020313631E4BF2
:101FE0001B6B03F002033B613B694FF48063FB61B1
:101FF00012233B6200237B620323BB620423FB6248
:1020000007F11C031946154803F0B8FF4FF400739D
:10201000FB6112233B6200237B620323BB62092323
:10202000FB6207F11C0319460C4803F0A7FF0023CD
:10203000FB60094B1B6C084A43F480031364064B96
:102040001B6C03F48003FB60FB6800BF3037BD46A8
:1020500080BD00BF00540040003802400004024030
:102060000058004080B586B000AF78607B681B6880
:102070002E4A93421ED100237B612D4B5B6C2C4A70
:1020800043F0010353642A4B5B6C03F001037B6153
:102090007B6900220021182003F037FB182003F091
:1020A00050FB00220021192003F02FFB192003F020
:1020B00048FB36E07B681B68B3F1804F16D10023E4
:1020C0003B611B4B1B6C1A4A43F001031364184B12
:1020D0001B6C03F001033B613B69002200211C20C3
:1020E00003F013FB1C2003F02CFB1AE07B681B6839
:1020F000104A934215D10023FB600D4B5B6C0C4AD8
:1021000043F4803353640A4B5B6C03F48033FB600D
:10211000FB6800220021182003F0F7FA182003F0D2
:1021200010FB00BF1837BD4680BD00BF0000014056
:10213000003802400040014080B58AB000AF7860AE
:1021400007F1140300221A605A609A60DA601A617B
:102150007B681B68244A93421FD100233B61234BB9
:102160001B6B224A43F001031363204B1B6B03F0EC
:1021700001033B613B694FF400637B610223BB6158
:102180000023FB6100233B6201237B6207F1140300
:102190001946174803F0F2FE22E07B681B68B3F192
:1021A000804F1DD10023FB60104B1B6B0F4A43F087
:1021B000010313630D4B1B6B03F00103FB60FB6812
:1021C0000F237B610223BB610023FB6100233B6281
:1021D00001237B6207F114031946054803F0CEFE84
:1021E00000BF2837BD4680BD0000014000380240D6
:1021F0000000024080B58CB000AF786007F11C038E
:1022000000221A605A609A60DA601A617B681B6863
:10221000684A934263D10023BB61674B5B6C664A9B
:1022200043F010035364644B5B6C03F01003BB6119
:10223000BB6900237B61604B1B6B5F4A43F001036A
:1022400013635D4B1B6B03F001037B617B694FF4F0
:102250000443FB6102233B6200237B620323BB62D6
:102260000723FB6207F11C031946544803F086FE5E
:10227000534B544A1A60524B4FF000625A60504B15
:1022800000229A604E4B0022DA604D4B4FF4806280
:102290001A614B4B00225A61494B00229A61484B0C
:1022A0000022DA61464B00221A62454B00225A6234
:1022B000434803F061FA0346002B01D0FFF796FD77
:1022C0007B683F4ADA633E4A7B68936300220021C1
:1022D000252003F01AFA252003F033FA66E07B6824
:1022E0001B68394A934261D100233B61324B5B6CDE
:1022F000314A43F0200353642F4B5B6C03F02003FF
:102300003B613B690023FB602B4B1B6B2A4A43F06C
:1023100004031363284B1B6B03F00403FB60FB688F
:10232000C023FB6102233B6200237B620323BB6269
:102330000823FB6207F11C031946244803F01EFE24
:10234000234B244A1A60224B4FF020625A60204BE4
:1023500000229A601E4B0022DA601D4B4FF480620F
:102360001A611B4B00225A61194B00229A61184BCB
:102370000022DA61164B00221A62154B00225A62C3
:10238000134803F0F9F90346002B01D0FFF72EFDA7
:102390007B680F4ADA630E4A7B6893630022002150
:1023A000472003F0B2F9472003F0CBF900BF3037E4
:1023B000BD4680BD001001400038024000000240D0
:1023C000DC09002040640240001401400008024083
:1023D0003C0A00202864024080B400AF00BFFDE743
:1023E00080B400AF00BFFDE780B400AF00BFFDE7E1
:1023F00080B400AF00BFFDE780B400AF00BFFDE7D1
:1024000080B400AF00BFBD465DF8047B704780B468
:1024100000AF00BFBD465DF8047B704780B400AFDD
:1024200000BFBD465DF8047B704780B500AF02F089
:1024300023FB00BF80BD000080B500AF024802F062
:1024400015FD00BF80BD00BF2407002080B500AF90
:10245000034806F0E9F9034806F0E6F900BF80BD3D
:10246000740800200409002080B500AF024806F07F
:10247000DBF900BF80BD00BF7408002080B500AF4D
:10248000024806F0D1F900BF80BD00BFBC080020A3
:1024900080B500AF024807F0F9F900BF80BD00BF6A
:1024A0004C09002080B500AF024803F0FDFA00BFE0
:1024B00080BD00BF6C07002080B500AF024803F06C
:1024C000F3FA00BF80BD00BF3C0A002080B500AF1A
:1024D000024803F0E9FA00BF80BD00BFDC0900201C
:1024E00080B500AF024807F0D1F900BF80BD00BF42
:1024F0009409002080B400AF01231846BD465DF862
:10250000047B704780B582B000AF7860396009F015
:1025100011FE034616221A604FF0FF3318460837A3
:10252000BD4680BD80B582B000AF78604FF0FF310E
:102530007868FFF7E7FF00BFFDE780B586B000AF22
:10254000F860B9607A6000237B610AE0AFF3008035
:102550000146BB685A1CBA60CAB21A707B69013363
:102560007B617A697B689A42F0DB7B681846183792
:10257000BD4680BD80B586B000AFF860B9607A60B6
:1025800000237B6109E0BB685A1CBA601B781846BF
:10259000AFF300807B6901337B617A697B689A4283
:1025A000F1DB7B6818461837BD4680BD80B483B028
:1025B00000AF78604FF0FF3318460C37BD465DF82A
:1025C000047B704780B483B000AF786039603B68AB
:1025D0004FF400525A60002318460C37BD465DF890
:1025E000047B704780B483B000AF78600123184645
:1025F0000C37BD465DF8047B704780B485B000AFF2
:10260000F860B9607A60002318461437BD465DF85B
:10261000047B704780B586B000AF7860144A154BD4
:10262000D31A7B617B693B61134B1B68002B02D182
:10263000114B124A1A60104B1A687B6813443A69AE
:102640009A4207D209F076FD03460C221A604FF039
:10265000FF3309E0084B1B68FB60074B1A687B6877
:102660001344054A1360FB6818461837BD4680BD01
:102670000000022000040000540C0020A0120020E2
:1026800080B400AF064BD3F88830054A43F470039A
:10269000C2F8883000BFBD465DF8047B704700BFBC
:1026A00000ED00E0DFF834D0FFF7EAFF0C480D49F9
:1026B0000D4A002302E0D458C4500433C4188C429D
:1026C000F9D30A4A0A4C002301E013600432A24203
:1026D000FBD309F035FDFEF71BFD7047000002201B
:1026E00000000020040700201C1F0108080700202C
:1026F0009C120020FEE7000080B500AF024805F004
:102700007FFF00BF80BD00BF0409002080B586B0F8
:1027100004AF0923FB71274B00221A81254BB3F923
:102720000820244BDA80234BB3F90620214B9A80F2
:10273000204B18684FF0FF33029301230193FB1DD8
:10274000009301233122A62104F042FA0346002B14
:1027500001D000232AE00B23FB71164B18684FF0C1
:10276000FF33029301230193FB1D009301232C22CD
:10277000A62104F02DFA0346002B01D0002315E01A
:102780000823FB710B4B18684FF0FF3302930123B2
:102790000193FB1D009301232D22A62104F018FABA
:1027A0000346002B01D0002300E001231846083720
:1027B000BD4680BD580C002080B584B000AF00231A
:1027C000FB600023BB6000237B600023FB701CE0E8
:1027D000322002F071F900F0B1F91D4BB3F90A3063
:1027E0001A46FB681344FB60194BB3F90C301A46C8
:1027F000BB681344BB60164BB3F90E301A467B68B6
:1028000013447B60FB780133FB70FB78132BDFD91B
:10281000FB68104A82FB0312D210DB17D31A0E4A50
:102820001360BB680B4A82FB0312D210DB17D31A6A
:102830000A4A13607B68074A82FB0312D210DB1737
:10284000D31A074A136000BF1037BD4680BD00BFD2
:10285000580C0020676666669C0C0020A00C0020C7
:10286000A40C002080B586B004AF0423FB71334B69
:102870000022DA81314BB3F90E20304B9A812F4B75
:10288000B3F90C202D4B5A812C4B18684FF0FF33B5
:10289000029301230193FB1D009301231522D021F4
:1028A00004F096F90346002B01D0002341E01D23DC
:1028B000FB71224B18684FF0FF3302930123019301
:1028C000FB1D009301231622D02104F081F9034659
:1028D000002B01D000232CE00023FB71174B18685C
:1028E0004FF0FF33029301230193FB1D009301235B
:1028F0001722D02104F06CF90346002B01D00023ED
:1029000017E00023FB710D4B18684FF0FF33029363
:1029100001230193FB1D009301233E22D02104F0EB
:1029200057F90346002B01D0002302E0FFF744FFD4
:10293000012318460837BD4680BD00BF580C002053
:1029400080B586B004AF0023FB71124B00229A823F
:10295000104BB3F914200F4B5A820E4BB3F91220CF
:102960000C4B1A820B4B18684FF0FF330293012374
:102970000193FB1D0093012302221A2104F028F980
:102980000346002B01D0002300E00123184608373E
:10299000BD4680BD580C002080B500AF1C4B1D4AC1
:1029A0001A601D4BDB6A07EE903AF8EE677A17EE75
:1029B000900AFDF7D1FD14A3D3E90023FDF74EFFE4
:1029C00002460B4610461946FEF716F90346134A0F
:1029D0001360FFF79BFE0346002B01D100230EE09E
:1029E000FFF740FF0346002B01D1002307E0FFF76C
:1029F000A7FF0346002B01D1002300E00123184666
:102A000080BD00BFAFF300800000000080842E4135
:102A1000580C00202008002000400140940C0020A9
:102A200080B584B002AF3223FB71204B1868FA1DC9
:102A30004FF0FF3300930123A62103F099FD0346D5
:102A4000002B01D000232DE0184B18683A464FF0B8
:102A5000FF3300930623A62103F088FE0346002BD4
:102A600001D000231EE07B781BB21B021AB23B7818
:102A70001BB213431AB20D4B9A80FB781BB21B0298
:102A80001AB2BB781BB213431AB2084BDA807B79B7
:102A90001BB21B021AB23B791BB213431AB2034B8F
:102AA0001A81012318460837BD4680BD580C002006
:102AB00080B500AF204BB3F90A301846FDF73AFD58
:102AC0001BA3D3E90023FDF79FFD02460B461046EA
:102AD0001946FEF791F80346174A5362164BB3F9AD
:102AE0000C301846FDF726FD11A3D3E90023FDF7AE
:102AF0008BFD02460B4610461946FEF77DF803464D
:102B00000D4A93620C4BB3F90E301846FDF712FDD7
:102B100007A3D3E90023FDF777FD02460B461046D5
:102B20001946FEF769F80346034AD36200BF80BD29
:102B30001D81A2AD06CFB13F580C002080B584B0F6
:102B400002AF1D23FB712C4B1868FA1D4FF0FF33A9
:102B500000930123D02103F00BFD0346002B01D08D
:102B6000002344E0244B18683A464FF0FF330093AB
:102B70000623D02103F0FAFD0346002B01D00023E9
:102B800035E03B781BB21B021AB27B781BB21343B1
:102B90001BB29AB2194B1B689BB2D31A9BB21AB2E2
:102BA000154B5A81BB781BB21B021AB2FB781BB2C1
:102BB00013431BB29AB2124B1B689BB2D31A9BB23F
:102BC0001AB20D4B9A813B791BB21B021AB27B7968
:102BD0001BB213431BB29AB20A4B1B689BB2D31AA7
:102BE0009BB21AB2044BDA81FFF762FF0123184649
:102BF0000837BD4680BD00BF580C00209C0C00204B
:102C0000A00C0020A40C002080B586B004AF0323E4
:102C1000FB71174B1868FB799AB24FF0FF330293A0
:102C2000062301933B46009301231A2104F0CAF8BE
:102C30003B781B029BB27A7813439BB21AB20C4BBF
:102C40001A82BB781B029BB2FA7813439BB21AB26A
:102C5000074B9A823B791B029BB27A7913439BB252
:102C60001AB2034B5A82012318460837BD4680BD6D
:102C7000580C002080B582B000AF404BB3F906304D
:102C80001A463E4BB3F9063003FB02F23B4BB3F955
:102C900008301946394BB3F9083001FB03F31344EC
:102CA00007EE903AF8EEE77AB0EE670A0DF0A4FF6F
:102CB00087ED010AD7ED017A9FED317AF4EEC77AFC
:102CC000F1EE10FA01D52F4B7B602C4BB3F9043099
:102CD00007EE903AF8EEE77AD7ED010AB0EE670A10
:102CE0000DF002FFF0EE407A9FED277A67EE877ACB
:102CF000264BC3ED007A214BB3F904301A461F4B23
:102D0000B3F9043003FB02F21C4BB3F90830194647
:102D10001A4BB3F9083001FB03F3134407EE903A62
:102D2000F8EEE77AB0EE670A0DF066FF87ED010A6C
:102D3000D7ED017A9FED127AF4EEC77AF1EE10FA30
:102D400001D5104B7B600D4BB3F9063007EE903A7E
:102D5000F8EEE77AD7ED010AB0EE670A0DF0C4FE8F
:102D6000F0EE407A9FED087A67EE877A084BC3ED64
:102D7000007A00BF0837BD4680BD00BF580C002058
:102D8000BD378635BD378635E12E6542AC0C002057
:102D9000A80C002080B400AF1A4B93ED097A1A4BAF
:102DA000D3ED007A27EE277A184BD3ED007A77EE31
:102DB000277A164BC3ED007A124B93ED0A7A124B29
:102DC000D3ED007A27EE277A114BD3ED007A77EE18
:102DD000277A0F4BC3ED007A0A4B93ED0B7A0A4B1F
:102DE000D3ED007A27EE277A0A4BD3ED007A77EEFF
:102DF000277A084BC3ED007A00BFBD465DF8047B1F
:102E0000704700BF580C0020940C0020B00C00202C
:102E1000B40C0020B80C002080B483B000AF254B68
:102E20007B60254B93ED097A244BD3ED007A27EE96
:102E3000277A234BD3ED007A37EE277AD7ED017A44
:102E400027EE277AF7EE006AD7ED017A76EEE76A89
:102E50001C4BD3ED007A66EEA77A77EE277A184BF3
:102E6000C3ED007A144B93ED0A7A144BD3ED007A3C
:102E700027EE277A144BD3ED007A37EE277AD7ED79
:102E8000017A27EE277AF7EE006AD7ED017A76EE1F
:102E9000E76A0E4BD3ED007A66EEA77A77EE277AD3
:102EA000094BC3ED007A00BF0C37BD465DF8047BCB
:102EB000704700BF3333733F580C0020940C002040
:102EC000BC0C0020A80C0020C00C0020AC0C002082
:102ED00080B500AF174BD3ED007A174B93ED097A0D
:102EE000164BD3ED006AB0EE661AF0EE470AB0EE6C
:102EF000670A134801F042FCF0EE407A114BC3ED33
:102F0000007A114BD3ED007A0B4B93ED0A7A0B4B01
:102F1000D3ED006AB0EE661AF0EE470AB0EE670A2B
:102F20000A4801F02BFCF0EE407A094BC3ED007A21
:102F300000BF80BDA80C0020580C0020940C00207D
:102F4000540F0020840F0020AC0C00206C0F0020D8
:102F5000880F002080B584B000AF78607B681B8943
:102F6000184607F0A3FD03461A467B685A627B6841
:102F7000586A7B681B89013B1A46002109F003F857
:102F80007B6800221A777B681B691A687B681B695B
:102F900022F028021A607B68DB681B68FB737B6881
:102FA00018687B68596A7B681B891A4606F014FC0E
:102FB00000BF1037BD4680BD80B584B000AF7860DB
:102FC0007B68586A7B681B89013B1A46002108F020
:102FD000DAFF7B6800221A777B681B691A687B68B6
:102FE0001B6922F028021A607B68DB681B68FB7390
:102FF0007B6818687B68596A7B681B891A4606F0EB
:10300000EBFB00BF1037BD4680BD80B483B000AF7E
:1030100078600B467B8000BF0C37BD465DF8047BB3
:10302000704780B582B000AF78600B467B807B88AC
:1030300019467868FFF7E9FF7B881946786801F040
:1030400059FB00BF0837BD4680BD80B582B000AFD8
:103050007860786801F098FD4FF47A71786801F033
:103060007AFE786801F044FE786802F00FF80346B3
:103070009BB218460837BD4680BD80B483B000AF10
:1030800078607B6803221A707B6800225A707B6824
:1030900003229A707B680322DA707B6803221A711C
:1030A0007B6803225A7100BF0C37BD465DF8047B74
:1030B000704780B58AB004AFF8600B467A60FB7247
:1030C000FB689B8C5B00FB82FB68986AFB7A9AB278
:1030D000F98A41F2883302930223019307F1140322
:1030E0000093012303F06EFE0346002B0CD17B7D81
:1030F0001BB21B021AB23B7D1BB213431BB29AB226
:103100007B681A80012300E0002318461837BD466B
:1031100080BD90B58BB004AFF8607A601A460B465C
:10312000FB721346BB72FB689B8C5B00FB82FB68E7
:10313000986AFB7A9AB2BB7A9BB2F98A41F28834D8
:10314000029401937B680093012303F03BFE034646
:10315000002B01D1002300E0012318461C37BD4697
:1031600090BD80B582B000AF78607B681A46882138
:103170007868FFF79EFF0346002B6FD07B68023311
:103180001A468A217868FFF794FF0346002B65D022
:103190007B6804331A468C217868FFF78AFF034660
:1031A000002B5BD07B6806331A468E217868FFF7C8
:1031B00080FF0346002B51D07B6808331A469021CC
:1031C0007868FFF776FF0346002B47D07B680A3309
:1031D0001A4692217868FFF76CFF0346002B3DD01A
:1031E0007B680C331A4694217868FFF762FF034628
:1031F000002B33D07B680E331A4696217868FFF790
:1032000058FF0346002B29D07B6810331A469821BB
:103210007868FFF74EFF0346002B1FD07B68123300
:103220001A469A217868FFF744FF0346002B15D011
:103230007B6814331A469C217868FFF73AFF0346EF
:10324000002B0BD07B6816331A469E217868FFF757
:1032500030FF0346002B01D0012300E00023184675
:103260000837BD4680BD80B584B000AF78607B680C
:1032700003F118020123A1217868FFF74AFF0346F2
:10328000002B4CD17B681A331A46E1217868FFF78E
:1032900010FF0346002B42D07B6803F11C02012380
:1032A000E3217868FFF735FF0346002B37D107F19C
:1032B0000E031A46E4217868FFF7FBFE0346002B55
:1032C0002DD007F10C031A46E5217868FFF7F1FECF
:1032D0000346002B23D07B6803F122020123E72160
:1032E0007868FFF716FF0346002B18D1FB891BB245
:1032F0001B011BB203F47F631AB2FB891B121BB2C2
:1033000003F00F031BB213431AB27B68DA83BB8945
:103310001B099BB21AB27B681A84012300E00023C8
:1033200018461037BD4680BD80B588B004AF7860C0
:103330000B46FB701346BB707B689B8C5B00FB816C
:103340007B68986AFB789AB2F98942F2107302930B
:1033500001230193BB1C0093012303F039FC0346B6
:10336000002B01D1002300E0012318461037BD4691
:1033700080BD80B584B000AF786039607B689B8C7D
:10338000762B05D07B689B8C772B01D000239DE0AA
:103390007B6803F132020123D0217868FFF7B9FE80
:1033A0000346002B01D0002390E07B6893F8323075
:1033B000582B06D07B6893F83230602B01D0002365
:1033C00084E0B622E0217868FFF7AEFF0346002BC9
:1033D00001D000237AE007F10C020123F321786881
:1033E000FFF797FE0346002BF5D13B7B03F001036B
:1033F000002BF0D17868FFF7B4FE034683F0010399
:10340000DBB2002B00D101E000235FE07B6893F882
:103410003230602B0AD17868FFF725FF034683F02E
:103420000103DBB2002B01D000234FE03B685B7946
:103430005BB25B015AB23B685B785BB29B005BB2EC
:1034400013435BB2FB73FB7B1A46F5217868FFF7E9
:103450006BFF0346002B01D0002337E03B681B784D
:10346000012B02D13B6800221A703B68DB785BB20B
:103470005B015AB23B689B785BB29B005BB2134323
:103480005AB23B681B785BB213435BB2BB737B6879
:1034900093F83230602B0DD13B681B797B737B7BBB
:1034A0001A46F2217868FFF73FFF0346002B01D050
:1034B00000230BE0BB7B1A46F4217868FFF734FF4A
:1034C0000346002B01D0002300E0012318461037EB
:1034D000BD4680BD80B487B000AFF860B9607A6047
:1034E000BB68DA10FB681B885B00D31AFA68B2F974
:1034F000022002FB03F3DB127B61BB681B11FA683D
:1035000012889B1ABA681211F9680988521A02FBCC
:1035100003F31B13FA68B2F9042002FB03F39B13B5
:103520003B617A693B691A447B681A607B681A6858
:1035300013469B00134480331B1218461C37BD46AC
:103540005DF8047B70472DE9B04FCCB000AFC7F8F1
:103550001401C7F81011C7F80C21D7F80C31DA178D
:103560001C461546B4F5FA3A45F1FF3BC7E94AABAC
:10357000D7F82C21D7F8283103FB02F1D7F82C21FA
:10358000D7F8283102FB03F3CA18D7F82831A3FB78
:10359000038902EB09039946D7F81431B3F91030C7
:1035A0001BB2DA17C7F8B830C7F8BC20D7E92E012C
:1035B000034603FB09F20B4608FB03F313440246E0
:1035C000A8FB0212C7F8C4200A46C7F8C020D7F8E3
:1035D000C4201344C7F8C430D7E93034C7E94834AD
:1035E000C7E94834D7F81431B3F90E301BB2DA17F3
:1035F000C7F8B030C7F8B420D7F82831D7E92C4540
:103600002A4602FB03F2D7F82C31214601FB03F3D3
:103610001A44D7F828312146A3FB0113C7F8043117
:103620000B46C7F80031D7F80431D318C7F8043176
:103630004FF000004FF00001D7E940452B465904F8
:10364000234641EAD33123465804D7E948231418C6
:103650003C644B417B64D7E91034C7E94834D7F860
:103660001431B3F90C301BB2DA17C7F8A830C7F819
:10367000AC204FF000004FF00001D7F8A830D9007F
:103680000020D7E948231418BC634B41FB63D7E9FA
:103690000E34C7E94834D7F82C21D7F8283103FB7A
:1036A00002F1D7F82C21D7F8283102FB03F3CA180E
:1036B000D7F82831A3FB0313C7F8FC300B46C7F833
:1036C000F830D7F8FC30D318C7F8FC30D7F81431ED
:1036D000B3F90A301BB2DA17C7F8A030C7F8A42034
:1036E000D7E93E452B46D7E92889424602FB03F23B
:1036F0004B46214601FB03F3134422464146A2FBFD
:103700000112C7F8F4200A46C7F8F020D7F8F420D1
:103710001344C7F8F4304FF000004FF00001D7E930
:103720003C452346180A2B4640EA03602B461912F3
:10373000D7F81431B3F908301BB2DA17C7F898304C
:10374000C7F89C20D7F82831D7E926894A4602FBDA
:1037500003F2D7F82C31444604FB03F31A44D7F89C
:1037600028314446A3FB0443C7F8EC302346C7F88E
:10377000E830D7F8EC30D318C7F8EC304FF000023F
:103780004FF00003D7E93A894C462303444643EA05
:1037900014534446220384183C6341EB03037B63C8
:1037A000D7E90C34C7E94A34D7E94A2303F5004185
:1037B000C7F89410C7F89020D7F81431DB889BB273
:1037C0000022C7F88830C7F88C20D7E924452B465B
:1037D000D7E92289424602FB03F24B46214601FB10
:1037E00003F3134422464146A2FB0112C7F8E4202A
:1037F0000A46C7F8E020D7F8E4201344C7F8E430BD
:103800004FF000024FF00003D7E9384529464A102F
:103810002946CB17C7E94A23D7E94A23134301D1E5
:10382000002348E1D7F81031C3F58013DA17BB62E3
:10383000FA62D7E90A34C7E94634D7F818315B1081
:10384000C7F88430D7F81831DB07C7F88030D7E9DC
:103850004823D7E920452146891AB967294661EBF3
:103860000303FB67D7E91E4522462B4691183962B0
:103870005B417B62D7E9082321465118B96129468B
:103880004B41FB614FF000024FF00003D7E906897E
:1038900049468B01414643EA916341468A014146CC
:1038A00089183961494643EB010179614FF0000203
:1038B0004FF00003D7E9048949468B00414643EAAB
:1038C000917341468A0010461946034622469B18CA
:1038D000BB600B462A4642EB0303FB604FF000023D
:1038E0004FF00003D7E9028949468B00414643EA7D
:1038F000917341468A0010461946034622469B189A
:103900003B672B460A4642EB03037B67D7E94A2312
:10391000D7E91C01FDF7C0F902460B46C7E946236B
:10392000D7F81431B3F916301BB2DA17BB66FA6652
:10393000D7E946234FF000004FF00001500B40EA5A
:10394000C3405913D7E91A452B4600FB03F223461F
:1039500003FB01F313442246A2FB0012C7F8DC204C
:103960000A46C7F8D820D7F8DC201344C7F8DC3063
:10397000D7E946234FF000004FF00001500B40EA1A
:10398000C3405913D7E936452B4600FB03F22346C3
:1039900003FB01F313442246A2FB0012C7F8D42014
:1039A0000A46C7F8D020D7F8D4201344C7F8D4303B
:1039B0004FF000024FF00003D7E9344521464A0E8C
:1039C000294642EAC11229464B16C7E94A23D7F8CD
:1039D0001431B3F914301BB2DA173B667A66D7F8A4
:1039E0001831D7E918452A4602FB03F2D7F81C31F3
:1039F000214601FB03F31344D7F818212146A2FB0B
:103A00000112C7F8CC200A46C7F8C820D7F8CC2046
:103A10001344C7F8CC304FF000024FF00003D7E951
:103A200032452146CA0C294642EA41322946CB1486
:103A3000C7E94823D7E94601D7E94A238418BC657A
:103A400041EB0303FB65D7E94823D7E91645214637
:103A500089183965294643EB010179654FF000006B
:103A60004FF00001D7E914452346180A2B4640EAD7
:103A700003602B461912D7F81431B3F912301BB278
:103A8000DA17BB64FA644FF000024FF00003D7E985
:103A900012894C462301444643EA147344462201EA
:103AA00084183C6041EB03037B60D7E90034C7E92D
:103AB0004634D7F81831184607F59877BD46BDE863
:103AC000B08F80B487B000AFF860B9607A607B686F
:103AD000A3F596337B61BB689A03FB68B3F91E308C
:103AE0001B05D21AFB68B3F9203019467B6901FB2C
:103AF00003F3D31A03F58043DB13FA6892F922200B
:103B000011467A6901FB02F29212F968097F0846B0
:103B1000796900FB01F1C91201F5004101FB02F2D4
:103B2000921202F50012F968B1F91A1001FB02F2C3
:103B300002F50052921302FB03F37B617B69DB13F6
:103B40007A69D21302FB03F3DB11FA68127E02FBDF
:103B500003F31B117A69D31A7B617B6923EAE37350
:103B60007B617B69B3F1C85FA8BF4FF0C8537B612D
:103B70007B691B1318461C37BD465DF8047B7047F4
:103B800080B58CB000AFF860B9607A603B60FB68CC
:103B900093F83230602B07D03B68002B02D03B6893
:103BA00000221A6000233B603B68002B01D00823F1
:103BB00000E00623FB62FB6ADBB207F11802F72183
:103BC000F868FFF7A6FA0346002B01D0002338E07F
:103BD0003B7E1A037B7E1B011343BA7E1209D2B2CD
:103BE0001343BB62FB7E1A033B7F1B0113437A7FA7
:103BF0001209D2B213437B6207F114031A46796AA1
:103C0000F868FFF767FC0246BB681A607B691A46D2
:103C1000B96AF868FFF797FC02467B681A603B6850
:103C2000002B0DD0BB7F1B02FA7F13433B627B69E5
:103C30001A46396AF868FFF744FF02463B681A6083
:103C4000012318463037BD4680BD000080B588B0DE
:103C500000AFF860B9607A603B603B68002B02D02F
:103C600007F1140300E0002307F1180207F11C011B
:103C7000F868FFF785FF0346002B28D0FB6907EEA5
:103C8000903AB8EEE77ADFED146AC7EE267ABB68A1
:103C9000C3ED007ABB6907EE903AB8EE677ADFEDC4
:103CA0000F6AC7EE267A7B68C3ED007A3B68002B6B
:103CB0000BD07B6907EE903AB8EE677ADFED086AC1
:103CC000C7EE267A3B68C3ED007A012300E00023AB
:103CD00018462037BD4680BD0000C8420000804322
:103CE00000008044000000002DE9B043A4B000AF04
:103CF000002387F88F304FF416720021504808F0E7
:103D000042F9504B5B6A5049184608F0A7F9C7F8CA
:103D10008400D7F88430002B1ED00D21D7F8840002
:103D200008F039F9C7F88000D7F88030002B13D09D
:103D3000D7F88020D7F88430D31AC7F88830D7F85E
:103D40008820D7F884103E4808F044F93C4AD7F858
:103D50008830134400221A703C49394808F04EF963
:103D6000024607F114031146184608F01DFA3749B8
:103D7000002008F043F9024607F1140311461846E3
:103D800008F012FA3149002008F038F9024607F12C
:103D900014031146184608F007FA3B7D412B01D069
:103DA000002331E2D7F88820D7F88410244808F09F
:103DB00011F9234AD7F88830134400221A70234996
:103DC0001F4808F01BF9024607F114031146184674
:103DD00008F0EAF91D49002008F010F9024607F141
:103DE00014031146184608F0DFF907F114013B46A9
:103DF0000222184608F0EEF83B46184606F052FE3E
:103E000003465AB2124B1A70114B93F90030DBB2D1
:103E1000053BDBB25AB20E4B1A700D4B93F90030D2
:103E2000002B17DAFF2387F88F30094B93F9003006
:103E3000DBB21833DBB25AB2054B1A701BE000BF7D
:103E4000C40C002004000020441A01084C1A010888
:103E5000350F0020D64B93F90030172B0BDD0123D3
:103E600087F88F30D24B93F90030DBB2183BDBB2CE
:103E70005AB2CF4B1A7007F11403991C3B46022229
:103E8000184608F0A7F83B46184606F00BFE034616
:103E9000DAB2C84B1A7007F11403191D3B4602220F
:103EA000184608F097F83B46184606F0FBFD034617
:103EB000DAB2C14B1A70C149002008F09FF80246DF
:103EC00007F114031146184608F06EF9BB490020AB
:103ED00008F094F8024607F114031146184608F05A
:103EE00063F93B4614220021184608F04CF807F10C
:103EF00014013B460222184608F06CF83B4618466F
:103F000006F0CAFD53EC102B10461946FCF774FE60
:103F10000346FB6707F114030233184606F0BFFDA2
:103F200010EE103A1846FCF717FB4FF00002A44BB6
:103F3000FCF794FC02460B4610461946FCF75CFE63
:103F40000346BB6797ED1F7AD7ED1E7A77EE277A87
:103F500017EE900AFCF700FB02460B469949C1E9AF
:103F600000239649002008F049F8024607F114039F
:103F70001146184608F018F93B7D532B08D1914B98
:103F8000D3E90023904683F000498E4BC3E90089B2
:103F90008A49002008F032F8024607F1140311465E
:103FA000184608F001F93B4614220021184607F094
:103FB000EAFF07F114013B460322184608F00AF80D
:103FC0003B46184606F068FD53EC102B1046194688
:103FD000FCF712FE0346FB6707F114030333184690
:103FE00006F05AFD51EC100B4FF00002744BFCF739
:103FF00035FC02460B4610461946FCF7FDFD03460C
:10400000BB6797ED1F7AD7ED1E7A77EE277A17EE0A
:10401000900AFCF7A1FA02460B466B49C1E900235E
:104020006649002007F0EAFF024607F11403114633
:10403000184608F0B9F83B7D572B08D1624BD3E9FD
:104040000023144683F000455F4BC3E900455B49FC
:10405000002007F0D3FF024607F11403114618466B
:1040600008F0A2F807F11403184606F015FD53EC0A
:10407000102B10461946FCF7BFFD0346534A136048
:10408000524B1B681846FCF767FA47A3D3E9002395
:10409000FCF7BAFA02460B4610461946FCF7ACFD8F
:1040A00003464B4A13604549002007F0A7FF02462C
:1040B00007F114031146184608F076F807F11403C7
:1040C000184606F0E9FC53EC102B10461946FCF795
:1040D00093FD03463F4A13603B46142200211846D5
:1040E00007F051FF3549002007F088FF024607F12D
:1040F00014031146184608F057F807F114013B461F
:104100000222184607F066FF3B46184606F0CAFC36
:104110000346DAB297F88F301344DAB22E4B1A7096
:1041200007F11403991C3B460222184607F052FF80
:104130003B46184606F0B6FC0346DAB2274B1A7027
:1041400007F11403191D3B460222184607F042FFEF
:104150003B46184606F0A6FC0346DAB2204B1A701E
:104160001649002007F04AFF024607F114031146E2
:10417000184608F019F807F11403184606F08CFCED
:1041800053EC102B10461946FCF736FD0346154A32
:1041900013600A49002007F031FF024607F11403BB
:1041A00022E000BFAFF300806F1283C0CAA1FD3FC1
:1041B000350F0020300F0020310F00204C1A01086D
:1041C00000004E40200F0020280F0020380F002054
:1041D0003C0F0020400F0020320F0020330F002042
:1041E000340F0020440F00201146184607F0DCFF72
:1041F0003B7D572B07D1074BD3ED007AF1EE677A61
:10420000044BC3ED007A012318469037BD46BDE844
:10421000B08300BF440F00202DE9B043A4B000AF2D
:10422000002387F88B304FF4167200216A4807F09C
:10423000AAFE6A4B5B6A6A49184607F00FFFC7F887
:104240008400D7F88430002B1ED00D21D7F88400CD
:1042500007F0A1FEC7F88000D7F88030002B13D0FC
:10426000D7F88020D7F88430D31AC7F88C30D7F825
:104270008C20D7F88410584807F0ACFE564AD7F87F
:104280008C30134400221A705649534807F0B6FE8A
:10429000024607F114031146184607F085FF5149FD
:1042A000002007F0ABFE024607F114031146184642
:1042B00007F07AFF4B49002007F0A0FE024607F105
:1042C00014031146184607F06FFF4649002007F017
:1042D00095FE024607F114031146184607F064FFE5
:1042E0004049002007F08AFE024607F114031146F8
:1042F000184607F059FF3B49002007F07FFE0246B1
:1043000007F114031146184607F04EFF3549002007
:1043100007F074FE024607F114031146184607F031
:1043200043FF3B7D302B01D10023C6E107F114038D
:10433000184606F0B7FB03465AB22B4B1A70D7F853
:104340008C20D7F88410244807F044FE224AD7F87E
:104350008C30134400221A7022491F4807F04EFE89
:10436000024607F114031146184607F01DFF1D49C8
:10437000002007F043FE024607F1140311461846D9
:1043800007F012FF07F114013B460222184607F01E
:1043900021FE3B46184606F085FB03465AB2134BF6
:1043A0001A70124B93F90030DBB2053BDBB25AB204
:1043B0000E4B1A700D4B93F90030002B18DAFF23C7
:1043C00087F88B30094B93F90030DBB21833DBB23E
:1043D0005AB2064B1A701CE0C40C002004000020E6
:1043E000501A01084C1A0108480F0020350F002010
:1043F000B44B93F90030172B0BDD012387F88B307A
:10440000B04B93F90030DBB2183BDBB25AB2AD4B84
:104410001A7007F11403991C3B460222184607F054
:10442000D9FD3B46184606F03DFB0346DAB2A64BE3
:104430001A7007F11403191D3B460222184607F0B3
:10444000C9FD3B46184606F02DFB0346DAB29F4BEA
:104450001A709F49002007F0D1FD024607F11403AE
:104460001146184607F0A0FE3B46142200211846CC
:1044700007F089FD07F114013B460222184607F0B8
:10448000A9FD3B46184606F007FB53EC102B1046DF
:104490001946FCF7B1FB0346FB6707F1140302332F
:1044A000184606F0FCFA10EE103A1846FCF754F8DD
:1044B0004FF00002874BFCF7D1F902460B4610463D
:1044C0001946FCF799FB0346BB6797ED1F7AD7EDBA
:1044D0001E7A77EE277A17EE900AFCF73DF802462F
:1044E0000B467D49C1E900237949002007F086FD8C
:1044F000024607F114031146184607F055FE3B7DAE
:10450000532B08D1744BD3E90023904683F0004924
:10451000714BC3E900896E49002007F06FFD024628
:1045200007F114031146184607F03EFE3B461422DD
:104530000021184607F027FD07F114013B4603222E
:10454000184607F047FD3B46184606F0A5FA53EC1F
:10455000102B10461946FCF74FFB0346FB6707F18B
:1045600014030333184606F097FA51EC100B4FF082
:104570000002584BFCF772F902460B4610461946EA
:10458000FCF73AFB0346BB6797ED1F7AD7ED1E7A1F
:1045900077EE277A17EE900AFBF7DEFF02460B460E
:1045A0004E49C1E900234A49002007F027FD024691
:1045B00007F114031146184607F0F6FD3B7D572B13
:1045C00008D1464BD3E90023144683F00045434B02
:1045D000C3E900453E49002007F010FD024607F1FF
:1045E00014031146184607F0DFFD07F114031846BF
:1045F00006F058FA03465AB2394B1A703449002073
:1046000007F0FCFC024607F114031146184607F0B8
:10461000CBFD07F11403184606F044FA03465AB2DC
:10462000304B1A702A49002007F0E8FC024607F1D7
:1046300014031146184607F0B7FD07F11403184696
:1046400006F02AFA53EC102B10461946FCF7D4FA60
:104650000346254A13601E49002007F0CFFC02469E
:1046600007F114031146184607F09EFD07F11403E5
:10467000184606F011FA53EC102B10461946FCF7B9
:10468000BBFA0346194A13601149002007F0B6FC33
:10469000024607F114031146184607F085FD3B7DDD
:1046A0004B2B09D1114BD3ED007A9FED117A67EEB8
:1046B000877A0E4BC3ED007A012318469037BD462A
:1046C000BDE8B083350F0020300F0020310F0020EF
:1046D0004C1A010800004E40200F0020280F002037
:1046E000480F0020490F00204C0F0020500F0020E1
:1046F00000007A4480B582B000AF78600B467B80C2
:104700000C4B1B7F002B10D17B681A68094B5B6830
:104710009A420AD1074B1B68184604F0DEFF054A8F
:104720007B881384034B01221A7700BF0837BD46EC
:1047300080BD00BF0400002080B483B000AF78606B
:104740007B684FF000021A607B684FF000025A60ED
:104750007B684FF07E529A607B684FF00002DA600F
:104760007B684FF000021A617B684FF07E525A61FD
:1047700000BF0C37BD465DF8047B704780B48FB036
:1047800000AFF86087ED020AC7ED010A87ED001A55
:10479000794B7B63794B3B63794BFB62FB68D3EDD1
:1047A000017A97ED017A77EE677AC7ED0A7AFB68AE
:1047B00093ED007AD7ED006AD7ED0A7A66EEA77A14
:1047C00077EE277AFB68C3ED007AFB6893ED027AF7
:1047D000FB68D3ED056AD7ED007A66EEA76AFB6841
:1047E000D3ED037A76EEE76AFB68D3ED047A76EED2
:1047F000E76AD7ED0D7A76EEA76AD7ED007A66EE16
:10480000A77A77EE277AFB68C3ED027AFB6893ED0F
:10481000037AFB68D3ED056AD7ED007A66EEA77AD6
:1048200077EE677AFB68C3ED037AFB6893ED047A51
:10483000FB68D3ED056AD7ED007A66EEA77A77EECE
:10484000677AFB68C3ED047AFB6893ED057AD7EDD0
:104850000C6AD7ED007A66EEA77A77EE277AFB68C6
:10486000C3ED057AFB68D3ED007A97ED027A77EE17
:10487000677AC7ED097AFB68D3ED027A97ED0B7A78
:1048800077EE277AC7ED087AFB68D3ED026A97EDD9
:10489000087AC6EE877AC7ED077AFB68D3ED046A1B
:1048A00097ED087AC6EE877AC7ED067AFB6893ED36
:1048B000007AD7ED076AD7ED097A66EEA77A77EE28
:1048C000277AFB68C3ED007AFB6893ED017AD7ED98
:1048D000066AD7ED097A66EEA77A77EE277AFB6843
:1048E000C3ED017AFB689B687B61FB68DB683B6119
:1048F000FB6893ED027AD7ED076AD7ED057A66EE8D
:10490000A77A77EE677AFB68C3ED027AFB6893EDCE
:10491000037AD7ED076AD7ED047A66EEA77A77EEC9
:10492000677AFB68C3ED037AFB6893ED047AD7EDF1
:10493000066AD7ED057A66EEA77A77EE677AFB68A6
:10494000C3ED047AFB6893ED057AD7ED066AD7EDDF
:10495000047A66EEA77A77EE677AFB68C3ED057A8C
:10496000FB681B6807EE903AB0EE670A3C37BD461D
:104970005DF8047B704700BF6F12033CA69B443B6D
:104980000AD7233C80B582B000AF78600B46FB703D
:10499000F91C4FF6FF730122786804F013FE00BF84
:1049A0000837BD4680BD80B582B000AF7860396001
:1049B00007E03B685A1C3A601B7819467868FFF795
:1049C000E1FF3B681B78002BF3D100BF00BF083725
:1049D000BD4680BD80B500AF0E4B1B680D4A43F449
:1049E000007313600B4B1B680A4A43F48063136027
:1049F000084B1B68074A43F480731360032000F0E0
:104A000079FE002000F008F8FDF7F6F900231846BB
:104A100080BD00BF003C024080B582B000AF78602E
:104A2000124B1A68124B1B7819464FF47A73B3FB7A
:104A3000F1F3B2FBF3F3184600F091FE0346002BAE
:104A400001D001230EE07B680F2B0AD80022796881
:104A50004FF0FF3000F059FE064A7B6813600023D8
:104A600000E0012318460837BD4680BD0000002045
:104A7000300000202C00002080B400AF064B1B78D3
:104A80001A46064B1B681344044A136000BFBD4618
:104A90005DF8047B704700BF300000208C0F0020C1
:104AA00080B400AF034B1B681846BD465DF8047B1D
:104AB000704700BF8C0F002080B584B000AF7860D5
:104AC000FFF7EEFFB8607B68FB60FB68B3F1FF3F68
:104AD00005D00A4B1B781A46FB681344FB6000BFE5
:104AE000FFF7DEFF0246BB68D31AFA689A42F7D88E
:104AF00000BF00BF1037BD4680BD00BF30000020A2
:104B000080B584B000AF78600023FB737B68002B16
:104B100001D1012333E07B681B6C002B09D178683D
:104B2000FDF792F97B6800225A647B68002283F8C3
:104B30003C207B681B6C03F01003002B18D17B68B2
:104B40001B6C23F4885323F0020343F002027B68BA
:104B50001A64786800F0F8FB7B6800225A647B686E
:104B60001B6C23F0030343F001027B681A6401E02D
:104B70000123FB737B68002283F83C20FB7B1846F3
:104B80001037BD4680BD000080B485B000AF7860AE
:104B90000023BB607B6893F83C30012B01D10223DA
:104BA00097E07B68012283F83C207B681B689B6848
:104BB00003F00103012B18D07B681B689A687B689F
:104BC0001B6842F001029A60454B1B68454AA2FBF4
:104BD00003239A0C13465B001344BB6002E0BB68DE
:104BE000013BBB60BB68002BF9D17B681B689B68ED
:104BF00003F00103012B5FD17B681B6C23F4E0639E
:104C000023F0010343F480727B681A647B681B689D
:104C10005B6803F48063002B07D07B681B6C23F474
:104C2000405343F480527B681A647B681B6C03F426
:104C30008053B3F5805F06D17B685B6C23F006027E
:104C40007B685A6402E07B6800225A647B68002219
:104C500083F83C20244BFB607B681B686FF02202CA
:104C60001A60FB685B6803F01F03002B0FD17B68A1
:104C70001B689B6803F04053002B29D17B681B689D
:104C80009A687B681B6842F080429A6020E07B68EB
:104C90001B68164A93421BD17B681B689B6803F014
:104CA0004053002B14D17B681B689A687B681B6893
:104CB00042F080429A600BE07B681B6C43F010026C
:104CC0007B681A647B685B6C43F001027B685A6402
:104CD000002318461437BD465DF8047B704700BFBB
:104CE0000000002083DE1B43002301400020014020
:104CF00080B483B000AF78607B6893F83C30012BC0
:104D000001D1022321E07B68012283F83C207B68EB
:104D10001B689A687B681B6822F001029A607B68B6
:104D20001B689B6803F00103002B09D17B681B6C97
:104D300023F4885323F0010343F001027B681A64D3
:104D40007B68002283F83C20002318460C37BD46C0
:104D50005DF8047B704780B584B000AF786039603F
:104D60000023FB607B681B689B6803F48063B3F5DA
:104D7000806F13D17B681B689B6803F48073B3F565
:104D8000807F0BD17B681B6C43F020027B681A6428
:104D90007B68002283F83C20012363E0FFF780FE5C
:104DA000F86021E03B68B3F1FF3F1DD03B68002B6A
:104DB00007D0FFF775FE0246FB68D31A3A689A429D
:104DC00012D27B681B681B6803F00203022B0BD016
:104DD0007B681B6C43F004027B681A647B680022CA
:104DE00083F83C2003233DE07B681B681B6803F0CD
:104DF0000203022BD6D17B681B686FF012021A6087
:104E00007B681B6C43F400727B681A647B681B68C8
:104E10009B6803F04053002B23D17B681B7E002B43
:104E20001FD17B681B68DB6A03F47003002B06D07C
:104E30007B681B689B6803F48063002B11D17B683F
:104E40001B6C23F480727B681A647B681B6C03F410
:104E50008053002B05D17B681B6C43F001027B68FB
:104E60001A64002318461037BD4680BD80B586B051
:104E700000AF786000237B6100233B617B681B6887
:104E80001B68FB607B681B685B68BB60FB6803F0AA
:104E900002037B61BB6803F020033B617B69002B4D
:104EA00049D03B69002B46D07B681B6C03F0100394
:104EB000002B05D17B681B6C43F400727B681A647D
:104EC0007B681B689B6803F04053002B2BD17B68E9
:104ED0001B7E002B27D17B681B68DB6A03F4700301
:104EE000002B06D07B681B689B6803F48063002B53
:104EF00019D17B681B685A687B681B6822F0200206
:104F00005A607B681B6C23F480727B681A647B6830
:104F10001B6C03F48053002B05D17B681B6C43F0A2
:104F200001027B681A64786800F0BDF87B681B6832
:104F30006FF012021A60FB6803F004037B61BB6828
:104F400003F080033B617B69002B57D03B69002B4A
:104F500054D07B681B6C03F01003002B05D17B68D9
:104F60001B6C43F400527B681A647B681B689B6867
:104F700003F44013002B39D17B681B689B6B03F44F
:104F80004013002B06D07B681B689B6803F480638A
:104F9000002B2BD17B681B685B6803F48063002BBC
:104FA00024D17B681B689B6803F04053002B1DD104
:104FB0007B681B7E002B19D17B681B685A687B6855
:104FC0001B6822F080025A607B681B6C23F48052BD
:104FD0007B681A647B681B6C03F48073002B05D11B
:104FE0007B681B6C43F001027B681A64786800F0F0
:104FF000A7FA7B681B686FF00C021A60FB6803F06D
:1050000001037B61BB6803F040033B617B69002BBC
:1050100017D03B69002B14D07B681B681B6803F01A
:105020000103012B0DD17B681B6C43F480327B683C
:105030001A64786800F041F87B681B686FF0010221
:105040001A60FB6803F020037B61BB6803F0806398
:105050003B617B69002B15D03B69002B12D07B682C
:105060005B6C43F002027B685A647B681B686FF0DC
:1050700020021A60786800F02AF87B681B686FF0DD
:1050800020021A6000BF1837BD4680BD80B483B0CF
:1050900000AF78607B681B68DB6C18460C37BD4638
:1050A0005DF8047B704780B483B000AF786000BFC8
:1050B0000C37BD465DF8047B704780B483B000AF09
:1050C000786000BF0C37BD465DF8047B704780B444
:1050D00083B000AF786000BF0C37BD465DF8047B3D
:1050E0007047000080B485B000AF7860396000235D
:1050F000BB607B6893F83C30012B01D1022313E1A4
:105100007B68012283F83C203B681B68092B25D96A
:105110007B681B68D9683B681B689BB21A461346BC
:105120005B0013441E3B072202FA03F3DA437B6859
:105130001B680A40DA607B681B68D9683B689A681C
:105140003B681B689BB2184603465B0003441E3B4A
:105150009A407B681B680A43DA6022E07B681B6820
:1051600019693B681B689BB21A4613465B001344DF
:10517000072202FA03F3DA437B681B680A401A61CC
:105180007B681B6819693B689A683B681B689BB21F
:10519000184603465B0003449A407B681B680A4339
:1051A0001A613B685B68062B24D87B681B68596BC7
:1051B0003B685A6813469B001344053B1F2202FAC2
:1051C00003F3DA437B681B680A405A637B681B68F9
:1051D000596B3B681B689BB218463B685A6813467C
:1051E0009B001344053B00FA03F27B681B680A43EB
:1051F0005A634CE03B685B680C2B24D87B681B68C7
:10520000196B3B685A6813469B001344233B1F22CB
:1052100002FA03F3DA437B681B680A401A637B686F
:105220001B68196B3B681B689BB218463B685A6841
:1052300013469B001344233B00FA03F27B681B6870
:105240000A431A6323E07B681B68D96A3B685A6883
:1052500013469B001344413B1F2202FA03F3DA4337
:105260007B681B680A40DA627B681B68D96A3B6806
:105270001B689BB218463B685A6813469B00134450
:10528000413B00FA03F27B681B680A43DA62294B50
:10529000FB607B681B68284A93420FD13B681B6800
:1052A000122B0BD1FB685B6823F40002FB685A6089
:1052B000FB685B6843F48002FB685A607B681B688C
:1052C0001D4A93422BD13B681B681C4A934203D072
:1052D0003B681B68112B22D1FB685B6823F48002BA
:1052E000FB685A60FB685B6843F40002FB685A6025
:1052F0003B681B68114A934211D1114B1B68114A3C
:10530000A2FB03239A0C13469B0013445B00BB6073
:1053100002E0BB68013BBB60BB68002BF9D17B6836
:10532000002283F83C20002318461437BD465DF860
:10533000047B704700230140002001401200001050
:105340000000002083DE1B4380B485B000AF78608E
:10535000794BFB60FB685B6823F44032FB685A6062
:10536000FB685A687B685B681A43FB685A607B6815
:105370001B685A687B681B6822F480725A607B68DD
:105380001B6859687B681B691A027B681B680A43A3
:105390005A607B681B685A687B681B6822F0407201
:1053A0005A607B681B6859687B689A687B681B68D1
:1053B0000A435A607B681B689A687B681B6822F402
:1053C00000629A607B681B6899687B68DA687B6812
:1053D0001B680A439A607B689B6A584A934222D0B2
:1053E0007B681B689A687B681B6822F070629A6011
:1053F0007B681B6899687B689A6A7B681B680A43AC
:105400009A607B681B689A687B681B6822F0405230
:105410009A607B681B6899687B68DA6A7B681B689E
:105420000A439A600FE07B681B689A687B681B6878
:1054300022F070629A607B681B689A687B681B68C0
:1054400022F040529A607B681B689A687B681B68F0
:1054500022F002029A607B681B6899687B681B7E59
:105460005A007B681B680A439A607B6893F8203077
:10547000002B1BD07B681B685A687B681B6842F452
:1054800000625A607B681B685A687B681B6822F45C
:1054900060425A607B681B6859687B685B6A013BA5
:1054A0005A037B681B680A435A6007E07B681B68E5
:1054B0005A687B681B6822F400625A607B681B682C
:1054C000DA6A7B681B6822F47002DA627B681B6808
:1054D000D96A7B68DB69013B1A057B681B680A4354
:1054E000DA627B681B689A687B681B6822F400722A
:1054F0009A607B681B6899687B6893F830305A0221
:105500007B681B680A439A607B681B689A687B68A3
:105510001B6822F480629A607B681B6899687B68CC
:105520005B699A027B681B680A439A6000BF143764
:10553000BD465DF8047B7047002301400100000F69
:1055400080B483B000AF786000BF0C37BD465DF813
:10555000047B704780B485B000AF78607B6803F04F
:105560000703FB600C4BDB68BB60BA684FF6FF03B8
:105570001340BB60FB681A02BB68134343F0BF6370
:1055800043F40033BB60044ABB68D36000BF1437E8
:10559000BD465DF8047B704700ED00E080B400AFCD
:1055A000044BDB681B0A03F007031846BD465DF891
:1055B000047B704700ED00E080B483B000AF034689
:1055C000FB7197F90730002B0BDBFB7903F01F020F
:1055D000074997F907305B09012000FA02F241F808
:1055E000232000BF0C37BD465DF8047B704700BF29
:1055F00000E100E080B483B000AF03463960FB7186
:1056000097F90730002B0ADB3B68DAB20C4997F9AF
:1056100007301201D2B20B4483F800230AE03B6842
:10562000DAB20849FB7903F00F03043B1201D2B24E
:105630000B441A7600BF0C37BD465DF8047B7047FB
:1056400000E100E000ED00E080B489B000AFF86058
:10565000B9607A60FB6803F00703FB61FB69C3F183
:105660000703042B28BF0423BB61FB690433062B0B
:1056700002D9FB69033B00E000237B614FF0FF325E
:10568000BB6902FA03F3DA43BB681A407B699A40AC
:105690004FF0FF317B6901FA03F3D9437B680B407C
:1056A000134318462437BD465DF8047B704700005D
:1056B00080B582B000AF78607B68013BB3F1807F3A
:1056C00001D301230FE00A4A7B68013B53600F219D
:1056D0004FF0FF30FFF78EFF054B00229A60044B1E
:1056E00007221A60002318460837BD4680BD00BF58
:1056F00010E000E080B582B000AF78607868FFF716
:1057000029FF00BF0837BD4680BD80B586B000AF19
:105710000346B9607A60FB7300237B61FFF73EFFAD
:1057200078617A68B9687869FFF78EFF024697F961
:105730000F3011461846FFF75DFF00BF1837BD4612
:1057400080BD80B582B000AF0346FB7197F907308A
:105750001846FFF731FF00BF0837BD4680BD80B552
:1057600082B000AF78607868FFF7A2FF0346184662
:105770000837BD4680BD000080B586B000AF7860B8
:1057800000237B61FFF78CF938617B68002B01D126
:10579000012399E07B68022283F835207B68002290
:1057A00083F834207B681B681A687B681B6822F0CA
:1057B00001021A600FE0FFF773F902463B69D31A42
:1057C000052B08D97B6820225A657B68032283F861
:1057D0003520032378E07B681B681B6803F0010316
:1057E000002BE8D17B681B681B687B617A69384BAA
:1057F00013407B617B685A687B689B681A437B68AF
:10580000DB681A437B681B691A437B685B691A4330
:105810007B689B691A437B68DB691A437B681B6A58
:1058200013437A6913437B617B685B6A042B07D15E
:105830007B68DA6A7B681B6B13437A6913437B616D
:105840007B681B687A691A607B681B685B697B618F
:105850007B6923F007037B617B685B6A7A6913438A
:105860007B617B685B6A042B17D17B689B6A7A69D2
:1058700013437B617B68DB6A002B0ED0786800F0F5
:1058800001FB0346002B08D07B6840225A657B68E9
:10589000012283F83520012316E07B681B687A69B2
:1058A0005A61786800F0B8FA0346FB607B68DB6DEC
:1058B0003F229A40FB689A607B6800225A657B68A9
:1058C000012283F83520002318461837BD4680BDD5
:1058D0003F8010F080B586B000AFF860B9607A60A4
:1058E0003B600023FB75FB689B6D3B61FB6893F895
:1058F0003430012B01D1022340E0FB68012283F800
:105900003420FB6893F83530DBB2012B2FD1FB68D4
:10591000022283F83520FB6800225A653B687A68CA
:10592000B968F86800F04AFAFB68DB6D3F229A40DC
:105930003B699A60FB681B681A68FB681B6842F049
:1059400016021A60FB681B6C002B07D0FB681B68F3
:105950001A68FB681B6842F008021A60FB681B6843
:105960001A68FB681B6842F001021A6005E0FB68D8
:10597000002283F834200223FB75FB7D184618377C
:10598000BD4680BD80B584B000AF78607B689B6DFC
:10599000FB60FFF785F8B8607B6893F83530DBB2C1
:1059A000022B08D07B6880225A657B68002283F82E
:1059B0003420012352E07B681B681A687B681B68EF
:1059C00022F016021A607B681B685A697B681B68A4
:1059D00022F080025A617B681B6C002B03D17B682C
:1059E0009B6C002B07D07B681B681A687B681B6860
:1059F00022F008021A607B681B681A687B681B68C3
:105A000022F001021A6013E0FFF74AF80246BB6871
:105A1000D31A052B0CD97B6820225A657B68032298
:105A200083F835207B68002283F83420032315E0B7
:105A30007B681B681B6803F00103002BE4D17B68C3
:105A4000DB6D3F229A40FB689A607B68012283F8F5
:105A500035207B68002283F8342000231846103755
:105A6000BD4680BD80B483B000AF78607B6893F89A
:105A70003530DBB2022B04D07B6880225A650123CB
:105A80000CE07B68052283F835207B681B681A6868
:105A90007B681B6822F001021A60002318460C374D
:105AA000BD465DF8047B704780B586B000AF786076
:105AB0000023BB608E4B1B688E4AA2FB03239B0A0C
:105AC0007B617B689B6D3B613B691B68FB607B680E
:105AD000DB6D08229A40FB681340002B1AD07B68CC
